:100000000A128A110C280134FE00030EF0000A08BF
:10001000F1000A168A11632C0A128A110F28831321
:10002000BB30FD001330FE000F30FF00A030840015
:100030000A168A11D2220A128A116630FD00123085
:10004000FE004A30FF00613084000A168A11D22275
:100050000A128A110A128A1103200A128A11FB005D
:10006000BB308400D4300A168A115E220A128A112B
:100070004430840061300A168A115E220A128A1105
:10008000FA0183010A128A1145280A168A11F324FB
:100090000A128A11831603133808DB003908DC00C2
:1000A0003A08DD00D901DA010130DE00D801DB3089
:1000B00083120313AB000030AC00AD000A168A11A6
:1000C000A3270A128A110A3083120313A0000030FA
:1000D000A10000300A168A1166230A128A117308D9
:1000E00083120313A3007208A2000A168A11CC25FA
:1000F0000A128A1183120313200883160313DF00E8
:1001000064305F02031C8528862888286330DF005E
:1001100001300A168A11F7260A128A118316031370
:10012000E000F430D4000130D5000130D4020030BA
:10013000031CD503D502540A031DA228550A031D2A
:10014000A228A32895283E306006031DA828A928C8
:10015000C928DB30F2008630F3008930F4000A163B
:100160008A11C6230A128A11DB3083120313AB00F3
:10017000831603135F0883120313C200C3014208EE
:10018000AC004308AD000A168A11A3270A128A118F
:10019000DA2A3D306006031DCE28CF2810295A08E0
:1001A000803AFF0080307F02031DD82805305902B5
:1001B0000318DB28DC28E428013083160313D90751
:1001C0000318DA0A0030DA07DB30F2008316031373
:1001D000590883120313C2004207A03E8400831310
:1001E0000008F300840A00088403F4000A168A1148
:1001F000C6230A128A11DB3083120313AB00831665
:1002000003135F0883120313C200C3014208AC004A
:100210004308AD000A168A11A3270A128A11DA2AA6
:100220003B306006031D1529162943295A08803AD8
:10023000FF0080307F02031D1F2901305902031C7B
:10024000222923292B29FF3083160313D9070318EA
:10025000DA0AFF30DA07DB30F2008316031359089D
:1002600083120313C2004207A03E840083130008D8
:10027000F300840A00088403F4000A168A11C623D6
:100280000A128A11FB282F306006031948294929D0
:100290004F2937306006031D4E294F2973295E030D
:1002A000031D5329542973290230DE000130D80080
:1002B0000A168A1156220A128A11B130F6008830C5
:1002C000F7008030F8000A128A159C210A128A1160
:1002D000F2010F300A168A1128250A128A11831298
:1002E00003131215DA2A04305E06031D78297929D2
:1002F000A929B7306006031D7E297F29A9299829DD
:100300000A168A1156220A128A110830831603131C
:10031000DE000830D800DA2A1030DE00DA2A203079
:10032000DE00DA2A4030DE00DA2A8030DE00DA2A07
:100330005608003A03198029013A03198C29033A17
:1003400003198F29013A03199229073A03199529AC
:10035000B82904305E06031DAE29AF29B829AF3095
:100360006006031DB429B529B8290130DE00DA2A58
:10037000DA2ADB3083120313AB00831603135F0802
:1003800083120313C200C3014208AC004308AD004E
:100390000A168A11A3260A128A11F62A0130831638
:1003A0000313DE000A168A1156220A128A11F2017C
:1003B0000C300A168A1128250A128A118312031397
:1003C0001211F62A043083160313DE000A168A116E
:1003D00056220A128A11F2010C300A168A112825B7
:1003E0000A128A11DE29580883120313A900831602
:1003F000031360080A128A1158250A128A11013A59
:100400000319E229033A0319CE29F62A5808831260
:100410000313A9008316031360080A128A15B02378
:100420000A128A1183160313D600F62A580883127B
:100430000313A9008316031360080A128A1578248F
:100440000A128A11AF30831603136006031D292A8E
:100450002A2AF62A0A168A1156220A128A1104300A
:1004600083160313DE00F62A0A168A1110260A12D2
:100470008A11DB30F2008930F3008930F4000A166B
:100480008A11C6230A128A11DB3083120313AB00D0
:10049000831603135F0883120313C200C3014208CB
:1004A000AC004308AD000A168A11A3270A128A116C
:1004B0002A2ADB30F2008C30F3008930F4000A166F
:1004C0008A11C6230A128A11DB3083120313AB0090
:1004D000831603135F0883120313C200C30142088B
:1004E000AC004308AD000A168A11A3270A128A112C
:1004F0000A128A1117270A128A112A2A0A128A1145
:10050000FD220A128A1183160313D70011305706F1
:10051000031D8B2A8C2A2A2ADB30F2009830F30044
:100520008930F4000A168A11C6230A128A11DB30B8
:1005300083120313AB00831603135F0883120313A4
:10054000C200C3014208AC004308AD000A168A117C
:10055000A3270A128A112A2A0A128A1593260A1236
:100560008A1183160313D70011305706031DB92AC9
:10057000BA2A2A2ADB30F2009230F3008930F400E4
:100580000A168A11C6230A128A11DB30831203135A
:10059000AB00831603135F0883120313C200C30169
:1005A0004208AC004308AD000A168A11A3270A12BC
:1005B0008A112A2A831603135E08013A0319B929FE
:1005C000033A0319F329063A0319062A0C3A0319C8
:1005D000162A183A0319342A303A0319592A603A6C
:1005E00003197E2AC03A0319AC2AF62A831603138C
:1005F000D80163280A128A110C280A168A11562279
:100600000A128A1101300A168A11F7260A128A1173
:1006100083120313C9004630F6008830F70080309B
:10062000F8000A128A159C210A128A11C03083121E
:100630000313A7004F080A168A11E1220A128A1131
:10064000C13083120313A70050080A168A11E12251
:100650000A128A11C33083120313A7003A300A1614
:100660008A11E1220A128A11C53083120313A700EE
:1006700051080A168A11E1220A128A11C630831221
:100680000313A70052080A168A11E1220A128A11DE
:10069000C83083120313A7003A300A168A11E122E8
:1006A0000A128A11CA3083120313A70053080A16CC
:1006B0008A11E1220A128A11CB3083120313A70098
:1006C00054080A168A11E1220A128A112F30831265
:1006D00003134906031D6D2B6E2B8F2C0130CA07A7
:1006E00003304A06031D752B762B8F2CCA018F2CE5
:1006F000CA30A70020300A168A11E1220A128A1194
:10070000CB3083120313A70020300A168A11E1228E
:100710000A128A110A30F200831203135308D03EE2
:100720000A168A11BB220A128A1183120313AC0023
:100730005408D03EAC0737304906031DA02BA12B2F
:10074000AA2B0130AC073C302C02031CA82BA92B90
:10075000AA2BAC010A30F2000030F3002C08A900EB
:10076000AA012908F4002A08F5000A128A152E2287
:100770000A128A117208303E83120313D3000A3022
:10078000F2000030F3002C08A900AA012908F400A7
:100790002A08F5000A168A114C270A128A117208D3
:1007A000303E83120313D4009A2CC530A7002030AA
:1007B0000A168A11E1220A128A11C6308312031323
:1007C000A70020300A168A11E1220A128A110A3083
:1007D000F200831203135108D03E0A168A11BB227D
:1007E0000A128A1183120313AD005208D03EAD07DE
:1007F00037304906031DFD2BFE2B072C0130AD07BA
:100800003C302D02031C052C062C072CAD010A30B0
:10081000F2000030F3002D08A900AA012908F40015
:100820002A08F5000A128A152E220A128A11720865
:10083000303E83120313D1000A30F2000030F3007F
:100840002D08A900AA012908F4002A08F5000A16B3
:100850008A114C270A128A117208303E8312031340
:10086000D2009A2CC030A70020300A168A11E1224B
:100870000A128A11C13083120313A70020300A160E
:100880008A11E1220A128A110A30F200831203133C
:100890004F08D03E0A168A11BB220A128A1183120F
:1008A0000313AE005008D03EAE0737304906031D93
:1008B0005A2C5B2C642C0130AE0718302E02031C1E
:1008C000622C632C642CAE010A30F2000030F3007D
:1008D0002E08A900AA012908F4002A08F5000A1226
:1008E0008A152E220A128A117208303E83120313CF
:1008F000CF000A30F2000030F3002E08A900AA0150
:100900002908F4002A08F5000A168A114C270A1251
:100910008A117208303E83120313D0009A2C4A08C1
:10092000003A0319322C013A0319D52B033A031963
:10093000782B9A2C4630F6008830F7008030F8008B
:100940000A128A159C210A128A11C03083120313DD
:10095000A7004F080A168A11E1220A128A11C13033
:1009600083120313A70050080A168A11E1220A1203
:100970008A11C33083120313A7003A300A168A1172
:10098000E1220A128A11C53083120313A70051080D
:100990000A168A11E1220A128A11C6308312031341
:1009A000A70052080A168A11E1220A128A11C830D9
:1009B00083120313A7003A300A168A11E1220A12A1
:1009C0008A11CA3083120313A70053080A168A112A
:1009D000E1220A128A11CB3083120313A7005408B4
:1009E0000A168A11E1220A128A11B7308312031300
:1009F0004906031DFC2CFD2C4C2D0A168A1156228B
:100A00000A128A114830F6008930F7008030F80069
:100A10000A128A159C210A128A110430F6008930C4
:100A2000F700C030F8000A128A159C210A128A11B8
:100A3000831203132C08F30000300A168A1148238E
:100A40000A128A11831203132D08F30001300A16CB
:100A50008A1148230A128A11831203132E08F30005
:100A600002300A168A1148230A128A11273083128B
:100A70000313AB000D30AA002530A900A90B3E2DB1
:100A8000AA0B3E2DAB0B3E2D452D0A168A11562280
:100A90000A128A111130572DAF304906031D512D0E
:100AA000522D022B0A168A1156220A128A110800A8
:100AB00083120313AE00AD0164080319602D612D8C
:100AC000812D2903031D652D662D7A2DCD01DA01B7
:100AD000DB01DC01DD01313083160313CF0031303F
:100AE000D0003130D1003130D200053083120313F1
:100AF000E500AE016508031D7E2D7F2DAB2D023074
:100B0000162F2903031D852D862DA52DCD01DA0174
:100B1000DB01DC01DD01AF012F08CF3E84002F088F
:100B20002D070A168A110D240A128A1183138000D8
:100B3000013083120313AF0704302F02031CA12DD1
:100B4000A22D8C2D0530E500AE016508031DA92DF1
:100B5000AA2DAB2D7F2D37302E06031DB02DB12DC4
:100B6000CD2D04304D020318B62DB72DCD2D4D08D7
:100B70005A3E84003130831380000130CD074D0888
:100B8000C43EA7002A300A168A11E1220A128A11ED
:100B9000053083120313E500EA2D2F302E06031DC6
:100BA000D22DD32DEA2D04304D020318D82DD92D86
:100BB000EA2D4D085A3E8400303083138000013006
:100BC000CD074D08C43EA7002A300A168A11E1223B
:100BD0000A128A110430831203134D06031DF12DEE
:100BE000F22D162F5A30F200CF30F3000430F4000B
:100BF0000030F5000A168A1158260A128A11720866
:100C00007304031D042E052E372E0A168A11562250
:100C10000A128A11F2010C300A168A1128250A12CA
:100C20008A11A53083120313AA00AA0B152E182EC1
:100C3000DC30F6008830F7008030F8000A128A15A0
:100C40009C210A128A11273083120313AC000D3045
:100C5000AB002530AA00AA0B2B2EAB0B2B2EAC0B16
:100C60002B2E322E8312031312110130162F013056
:100C700083120313E2026208031D3F2E402EB72E9B
:100C80000A168A1156220A128A11F2010C300A162B
:100C90008A1128250A128A11A53083120313AA008B
:100CA000AA0B502E532E5630F6008830F7008030B5
:100CB000F8000A128A159C210A128A115A30F6008D
:100CC0008930F700C030F8000A128A159C210A12F8
:100CD0008A113C3083120313E300AD2EC930A70004
:100CE0000A30F2000030F3006308AA00AB012A08C2
:100CF000F4002B08F5000A128A152E220A128A1116
:100D00007208303E0A168A11E1220A128A11CA308C
:100D100083120313A7000A30F2000030F3006308C7
:100D2000AA00AB012A08F4002B08F5000A168A1164
:100D30004C270A128A117208303E0A168A11E122E3
:100D40000A128A117330F6008930F700CC30F800AF
:100D50000A128A159C210A128A118312031363084E
:100D6000031DB32EB42E6E2E0330E200FA2E0A16A7
:100D70008A1156220A128A11F2010C300A168A11BF
:100D800028250A128A11A53083120313AA00AA0B80
:100D9000C72ECA2EA230F6008830F7008030F80047
:100DA0000A128A159C210A128A117530F6008830C1
:100DB000F700C030F8000A128A159C210A128A1125
:100DC000CE3083120313A7006208303E0A168A1140
:100DD000E1220A128A11273083120313AC000D306E
:100DE000AB002530AA00AA0BF32EAB0BF32EAC0BF5
:100DF000F32EFA2E0A168A1156220A128A11B130DF
:100E0000F6008830F7008030F8000A128A159C211D
:100E10000A128A11F2010F300A168A1128250A12C5
:100E20008A1183120313CD010530E500080000305C
:100E3000F3008830F4000A168A11E7230A128A1197
:100E4000053083120313AF00B001B1013108233E16
:100E5000840031082F070A168A110D240A128A11FC
:100E600083138000013083120313B1070B3031026A
:100E7000031C3B2F3C2F262F0B30AF07AE0123085E
:100E8000031D432F442F452FCF2F23080A168A1105
:100E900098220A128A1120300A168A1198220A1200
:100EA0008A118312031324080A168A1198220A123F
:100EB0008A118312031325080A168A1198220A122E
:100EC0008A113A300A168A1198220A128A1183125C
:100ED000031326080A168A1198220A128A1183120D
:100EE000031327080A168A1198220A128A113A3027
:100EF0000A168A1198220A128A11831203132808EB
:100F00000A168A1198220A128A11831203132908D9
:100F10000A168A1198220A128A1120300A168A119A
:100F200098220A128A11831203132A080A168A11B8
:100F300098220A128A11831203132B080A168A11A7
:100F400098220A128A1120300A168A1198220A124F
:100F50008A11831203132C080A168A1198220A1286
:100F60008A11831203132D080A168A1198220A1275
:100F70008A110A300A168A1198220A128A110D3033
:100F80000A168A1198220A128A1101308312031359
:100F9000B0070A303002031CCE2FCF2F252F0A16A0
:100FA0008A1156220A128A11F730F6008830F700AB
:100FB0008030F8000A128A159C210A128A11043026
:100FC000F6008930F700C030F8000A128A159C211B
:100FD0000A128A11273083120313A2000D30A100D8
:100FE0002530A000A00BF22FA10BF22FA20BF22FA5
:100FF000F92F08008316031306083F3886000800FF
:1010000023342034543449344D344534203420348E
:1010100020342034203445342034203453345034A8
:101020000A340D340034503441345334533457347B
:101030004F345234443420344334483441344E34F1
:101040004734453444340034233420345434493450
:101050004D34453420342034203420342034453479
:101060002034203453345034003420345434493440
:101070004D34453420342034203420342034453459
:1010800056342034203453345034003454344934EA
:101090004D34453420342834483448343A344D34BF
:1010A0004D343A34533453342934003459346F3482
:1010B00075342034613472346534203462346C34D5
:1010C0006F3463346B3465346434003443346834CF
:1010D00061346E3467346534203450346134733491
:1010E0007334203420342034003441347434743464
:1010F00065346D3470347434733420346C34653436
:10110000663474343A34003445344E3454344534FF
:10111000523420344E34453457342034503457340C
:101120005234443400343434203444344934473461
:1011300049345434203454344F34203453344534F7
:1011400054340034573472346F346E34673420347E
:10115000703461347334733477346F34723464347C
:10116000003445346E347434653472342034703451
:1011700061347334733477346F34723464340034CC
:1011800045344E3454344534523420344F344C3486
:1011900044342034503457344434003445344E34CD
:1011A00054344534523420344E344534573420348A
:1011B00050345734443400344C346F346734693419
:1011C0006E3420345334753463346334653473348B
:1011D00073340034533465347434203454346934F3
:1011E0006D346534203420342034203400344434C9
:1011F0004F3457344E344C344F344134443420341B
:101200004C344F344734003453345534433443342E
:10121000453453345334463455344C344C345934B7
:10122000003444346F3477346E346C346F3461344A
:10123000643420344C346F346734003453345534C0
:1012400043344334453453345334463455344C34A6
:101250004C34003443344C3445344134523420341B
:101260004C344F34473400344F34523420344334F8
:1012700041344E34433445344C34003443346C34BC
:1012800065346134723420344C346F346734003444
:10129000543449344D344534203453344534543473
:1012A0000034563469346534773420344C346F3428
:1012B000673400345734613469347434203466340C
:1012C0006F34723400344734523441344E34543421
:1012D00045344434003449344E34563441344C346B
:1012E000493444340034733465346334003447344F
:1012F000313400344734323400344734333400342A
:1013000047343434003447343534003420344334E3
:10131000003443344C34003444344C3400344734C7
:101320004E340034433450340034473452340034A3
:0613300053345434003474
:10133800F20178080A168A1128250A128A15BA298C
:10134800F201F20A7708FF00760884000A168A116B
:1013580000200A128A150A168A1128250A128A15E7
:101368000130F6070318F70A0030F70777088312E9
:101378000313FF00760884000A168A1100200A1257
:101388008A15003A031DC929CA29A4290800C330AF
:10139800F700CD30F600F60BCF29F70BCF29F20175
:1013A80033300A168A1128250A128A151B30F700CD
:1013B8009E30F600F60BDE29F70BDE290000F2015D
:1013C80033300A168A1128250A128A15A630F60023
:1013D800F60BEC290000F20133300A168A11282591
:1013E8000A128A15F729F8290000F20102300A16B4
:1013F8008A1128250A128A15A630F600F60B022A49
:101408000000F20128300A168A1128250A128A15C6
:10141800A630F600F60B0E2A0000F20101300A167B
:101428008A1128250A128A150430F7003D30F60083
:10143800F60B1C2AF70B1C2A212AF2010C300A167B
:101448008A1128250A128A15A630F600F60B2A2AD0
:1014580000000800F701F31F322A332A3A2AF2095A
:10146800F309F20A0319F30A0130F700F51F3D2AC0
:101478003E2A452AF409F509F40A0319F50A013048
:10148800F706F801F9017208730403194C2A4D2A6A
:10149800822A0130F600592A01300310F20DF30DAB
:1014A800FF3E031D512A0130F607F31F5C2A5D2A0F
:1014B800502A01300310F80DF90DFF3E031D5E2A76
:1014C80073087502031D6A2A72087402031C6D2AC8
:1014D8006E2A752A7208F4027308031CF503F502D4
:1014E800781401300310F30CF20CFF3E031D762A2A
:1014F8000130F602031D812A822A5D2A7708031922
:10150800862A872A8C2AF809F909F80A0319F90A98
:101518007908F3007808F2000800003083120313FA
:10152800A4000030A3000030A2000030A10075081C
:101538007404730472040319A22AA32AEE2A013040
:10154800A500B12A0130A0000310F20DF30DF40D2F
:10155800F50DA00BA82A0130A507F51FB42AB52A56
:10156800A62A0130A0000310A10DA20DA30DA40D01
:10157800A00BB72A75087902031DCC2A74087802D3
:10158800031DCC2A73087702031DCC2A7208760241
:10159800031CCF2AD02ADF2A7208F6027308031C1C
:1015A800730FF7027408031C740FF8027508031C04
:1015B800750FF902211401300310F50CF40CF30C2B
:1015C800F20CFF3E031DE02A0130A502031DED2A9F
:1015D800EE2AB52A2408F5002308F4002208F300AF
:1015E8002108F2000800831203132908840002303E
:1015F8000A168A1138240A128A1583138000831266
:101608000313290A840001300A168A1138240A12A1
:101618008A1583138000831203132908023E84006D
:1016280000300A168A1138240A128A15831380009A
:1016380083120313290884000008AA000430031049
:10164800AA0CFF3E031D232B2A080339303ECF0086
:101658002908840000080F39303ED000C030A700A8
:101668004F080A168A11E1220A128A15C13083121C
:101678000313A70050080A168A11E1220A128A15D4
:10168800C23083120313A7003A300A168A11E122E6
:101698000A128A1583120313290A84008313000887
:1016A800AA0004300310AA0CFF3E031D562B2A087B
:1016B8000739303ED100290A840000080F39303E2E
:1016C800D200C330A70051080A168A11E1220A1273
:1016D8008A15C43083120313A70052080A168A1108
:1016E800E1220A128A15C53083120313A7003A3083
:1016F8000A168A11E1220A128A158312031329088D
:10170800023E840083130008AA0004300310AA0CC8
:10171800FF3E031D8A2B2A080739303ED3002908CB
:10172800023E840000080F39303ED400C630A700BE
:1017380053080A168A11E1220A128A15C730831241
:101748000313A70054080A168A11E1220A128A15FF
:1017580083120313D501080083120313AC0002306F
:101768002906031DB82BB92BBC2BCC010130E10095
:1017780037302C06031DC12BC22BDA2B04304C0248
:101788000318C72BC82BDA2B0130CC0702306102B3
:101798000318CF2BD02BD52B0A168A1156220A12E2
:1017A8008A15013083120313E107F62B2F302C061C
:1017B800031DDF2BE02BF62B4C080319E42BE52B3C
:1017C800F62B0130CC0202306102031CEC2BED2B0E
:1017D800F22B0A168A1156220A128A150130831230
:1017E8000313E1026103031DFA2BFB2B382C803015
:1017F800A7002A300A168A11E1220A128A15C03077
:1018080083120313A70020300A168A11E1220A1254
:101818008A15831203134C08AA002A07AE3E8400D7
:1018280083130008F600840A00088403F700823056
:10183800F8000A128A159C210A128A1583120313CA
:101848004C08AA002A07B03E840083130008F6005B
:10185800840A00088403F700C230F8000A128A15C7
:101868009C210A128A15742C8030A70020300A1691
:101878008A11E1220A128A15C03083120313A700C5
:101888002A300A168A11E1220A128A1583120313D2
:101898004C08AA002A07AC3E840083130008F6000F
:1018A800840A00088403F7008230F8000A128A15B7
:1018B8009C210A128A15831203134C08AA002A07CE
:1018C800AE3E840083130008F600840A00088403EF
:1018D800F700C230F8000A128A159C210A128A15EC
:1018E800831203134C08080083120313B70008304F
:1018F8002906031D802C812C832CCB019F2C37308B
:101908003706031D882C892C922C0A304B020318A9
:101918008E2C8F2C922C0130CB079F2C2F30370622
:10192800031D972C982C9F2C4B0803199C2C9D2C3D
:101938009F2C0130CB020B30F2004B080A168A119B
:10194800BB220A128A15053E83120313B600B8019A
:1019580038082A3E8400380836070A168A110D24EA
:101968000A128A1583138000013083120313B80703
:101978000B303802031CC12CC22CAC2CB5012A0830
:101988000319C72CC82C732D2430F6008830F700B3
:101998008030F8000A128A159C210A128A15C03074
:1019A80083120313A7002A080A168A11E1220A12D1
:1019B8008A15C13083120313A70020300A168A1132
:1019C800E1220A128A15C23083120313A7002B08DA
:1019D8000A168A11E1220A128A15C33083120313E8
:1019E800A7002C080A168A11E1220A128A15C430A7
:1019F80083120313A7003A300A168A11E1220A1249
:101A08008A15C53083120313A7002D080A168A11F8
:101A1800E1220A128A15C63083120313A7002E0882
:101A28000A168A11E1220A128A15C7308312031393
:101A3800A7003A300A168A11E1220A128A15C8301C
:101A480083120313A7002F080A168A11E1220A122B
:101A58008A15C93083120313A70030080A168A11A1
:101A6800E1220A128A15CA3083120313A700203014
:101A78000A168A11E1220A128A15CB30831203133F
:101A8800A70031080A168A11E1220A128A15CC30F9
:101A980083120313A70032080A168A11E1220A12D8
:101AA8008A15CD3083120313A70020300A168A1135
:101AB800E1220A128A15CE3083120313A7003308D5
:101AC8000A168A11E1220A128A15CF3083120313EB
:101AD800A70034080A168A11E1220A128A1508009A
:101AE80083120313AF00AE01640803197C2D7D2D0A
:101AF8009C2D2F03031D812D822D952DC801D60104
:101B0800D701D801D901313083160313CA00313007
:101B1800CB003130CC003130CD00053083120313B7
:101B2800E5006508031D992D9A2DC52D0230922ECA
:101B38002F03031DA02DA12DBF2DC801D601D7014C
:101B4800D801D901B1013108CA3E840031082E07F5
:101B58000A168A110D240A128A158313800001308F
:101B680083120313B10704303102031CBC2DBD2DB1
:101B7800A72D0530E5006508031DC32DC42DC52D0F
:101B88009A2D01300A168A11F7260A128A1583122D
:101B98000313B000F430AC000130AD000130AC02EA
:101BA8000030031CAD03AD022C0A031DDF2D2D0AE6
:101BB800031DDF2DE02DD22D04304806031DE52D31
:101BC800E62DE72D272E37303006031DEC2DED2DA1
:101BD800092E043048020318F22DF32D092E480867
:101BE800563E84003130831380000130C80748080E
:101BF800C43EA7002A300A168A11E1220A128A1561
:101C0800053083120313E500C52D2F303006031D60
:101C18000E2E0F2EC52D043048020318142E152E33
:101C2800C52D4808563E84003030831380000130AB
:101C3800C8074808C43EA7002A300A168A11E122BC
:101C48000A128A15C52D04304806031D2C2E2D2E88
:101C5800922E5630F200CA30F3000430F4000030FF
:101C6800F5000A168A1158260A128A157208730492
:101C7800031D3F2E402E722E0A168A1156220A1272
:101C88008A15F2010C300A168A1128250A128A15BB
:101C9800A53083120313A900A90B502E532E6330CD
:101CA800F6008930F7008030F8000A128A159C2166
:101CB8000A128A15273083120313AB000D30AA00CD
:101CC8002530A900A90B662EAA0B662EAB0B662E33
:101CD8006D2E8312031312111130922E0A168A11D7
:101CE80056220A128A156B30F6008930F7008030C8
:101CF800F8000A128A159C210A128A1527308312C5
:101D08000313AB000D30AA002530A900A90B8A2EB9
:101D1800AA0B8A2EAB0B8A2E912E223008000A16A7
:101D28008A1156220A128A15C030F6008830F70048
:101D38008030F8000A128A159C210A128A1501308F
:101D48000A128A1574250A128A1583120313BC0015
:101D580011303C06031DB12EB22EFE2F0A168A1131
:101D680056220A128A15CE30F6008830F7008030E5
:101D7800F8000A128A159C210A128A152730831244
:101D88000313B4000D30B3002530B200B20BCA2ED5
:101D9800B30BCA2EB40BCA2ED12E0A168A1156229C
:101DA8000A128A159330F6008830F7008030F80060
:101DB8000A128A159C210A128A153430F6008930D5
:101DC800F700C030F8000A128A159C210A128A15F9
:101DD800273083120313B4000D30B3002530B2004E
:101DE800B20BF42EB30BF42EB40BF42EFB2E0A1602
:101DF8008A1156220A128A158430F6008830F700B4
:101E08008030F8000A128A159C210A128A1583125A
:101E18000313C101BF01BD01F2010F300A168A1177
:101E280028250A128A1501300A168A11F7260A127D
:101E38008A1583120313C000E830BA000330BB00D0
:101E48000130BA020030031CBB03BB023A0A031D6F
:101E5800312F3B0A031D312F322F242F37304006F4
:101E6800031D372F382F5A2F0430410203183D2FF6
:101E78003E2F5A2F4108353E8400313083138000AD
:101E88000130C1074108C43EA7002A300A168A114A
:101E9800E1220A128A150430831203134106031D36
:101EA800562F572F802F0130BF00802F2F3040062C
:101EB800031D5F2F602F802F043041020318652F08
:101EC800662F802F4108353E840030308313800010
:101ED8000130C1074108C43EA7002A300A168A11FA
:101EE800E1220A128A150430831203134106031DE6
:101EF8007E2F7F2F802F572F4108353E8400831374
:101F08008001B7304006031D8A2F8B2FE62F3F082C
:101F180003198F2F902FE62FF2010C300A168A1121
:101F280028250A128A150430831203134106031D5B
:101F38009E2F9F2F172F3530F5003D080A168A115E
:101F4800F6220A128A15643083120313BE00013088
:101F5800BE023E0A031DB12FB22FAB2F0A168A11FB
:101F680056220A128A151330F6008830F70080309E
:101F7800F8000A128A159C210A128A150430F60004
:101F88008930F700C030F8000A128A159C210A121D
:101F98008A1583120313E401273083120313B40054
:101FA8000D30B3002530B200B20BD82FB30BD82FA9
:101FB800B40BD82FDF2F0A168A1156220A128A1557
:101FC8001130FF2FAF304006031DEB2FEC2F172FDA
:101FD8003F080319F02FF12F172FF2010C300A16C2
:101FE8008A1128250A128A150A168A1156220A12F7
:101FF8008A15FF2F22300800FF1B0A2883137F1839
:1020080083170008840A0319FF0A08007F087F392C
:0C2018008A000408840A0319FF0A8200F1
:10249400013403343C3401340534831603139F1789
:1024A400831203131F140800F20101300A168A1163
:1024B40028250A168A11080064008001840A04068B
:1024C4000319003404065F2A0A168A11AE220A167A
:1024D4008A1183160313111408000A168A11AE22F6
:1024E4000A168A11831603131115080083120313A5
:1024F40012109210FA308316031392008C14080001
:102504000A168A116F220A168A110A168A1166227D
:102514000A168A110800F2000A168A11AE220A1657
:102524008A1172088312031393000800F2007208E0
:102534008312031399000C1EA02AA12A9D2A0C12AF
:102544000800831603138801091189100A128A15D9
:10255400CB210A168A110800831603131419B32A0F
:10256400B42AAE2A11081F39031DB92ABA2AAE2A81
:102574000800F400F301741CC02AC12AC32A72089B
:10258400F3070310F20D0310F40C7408031DCB2A97
:10259400CC2ABD2A730808007E088A007F088200BE
:1025A4000A168A11CE220A168A118000840A0408A7
:1025B4007D0603190034FF0A0319FE0AD22A831286
:1025C4000313A800F20127080A168A1128250A16FF
:1025D4008A11F201F20A8312031328080A168A11D7
:1025E40028250A168A110800F600062B75088400AF
:1025F4000008F30076080A168A112A230A168A119B
:102604000130F6070130F5077508840083130008CC
:10261400031D0D2B0E2BF82A08008F3489349534B2
:102624008934773489347A3489347D3489348034F4
:10263400893483348934513489343E3489341134AF
:102644008934EA348834663488344F344E34003460
:10265400F4000A168A1166220A168A11A0300A1694
:102664008A118D220A168A1174080A168A118D227B
:102674000A168A1173080A168A118D220A168A11FB
:102684000A168A116F220A168A110800F4000A1623
:102694008A1166220A168A11D0300A168A118D22EE
:1026A4000A168A1174080A168A118D220A168A11CA
:1026B40073080A168A118D220A168A110A168A11BB
:1026C4006F220A168A110800F5007508F400033019
:1026D4000310F40DFF3E031D6A2B831203131F081E
:1026E400C73974049F001F151F19792B7A2B762B79
:1026F4001E08F700831603131E08F6007708F3007C
:102704007608F20008000B30F200831203134E081F
:102714000A168A11BB220A168A11053EF7000130F7
:1027240083120313CE070A304E06031D9A2B9B2BEC
:102734009C2BCE01BE30F50077080A168A11F622CA
:102744000A168A110800F2000A168A11AE220A1625
:102754008A118316031391150A168A11AE220A16DA
:102764008A11831203131308F3007203031DBB2B96
:10277400BC2BC02B831603139116C32B8316031390
:1027840091121116730808007208F7007408F60015
:102794007308F500F30A0319F40A76088312031385
:1027A400FF00750884000A168A1100200A168A118F
:1027B400FF007708F70A84007F088313800000086D
:1027C400031DE52BE62BC82B0800FC2B7408FF0027
:1027D400730884000A168A1100200A168A110A1640
:1027E4008A1198220A168A110130F3070318F40A91
:1027F4000030F407740883120313FF007308840085
:102804000A168A1100200A168A11003A031D0B2C9D
:102814000C2CE82B0800F4000A168A1166220A160A
:102824008A11A0300A168A118D220A168A11740898
:102834000A168A118D220A168A110A168A11822210
:102844000A168A11A1300A168A118D220A168A11D3
:1028540000300A168A11A5230A168A11F5000A16F1
:102864008A116F220A168A1175080800F4000A16E4
:102874008A1166220A168A11D0300A168A118D220C
:102884000A168A1174080A168A118D220A168A11E8
:102894000A168A1182220A168A11D1300A168A115E
:1028A4008D220A168A1100300A168A11A5230A16E7
:1028B4008A11F5000A168A116F220A168A11750800
:1028C4000800831203138C1C682C692C892C01309A
:1028D400C4070318C50A0030C507203044064E302B
:1028E40003194506031D772C782C882CC401C501D7
:1028F400630803197E2C7F2C812C0130E3026508C8
:102904000319852C862C882C0130E5028C10710863
:102914008A00700E8300FE0E7E0E090083120313DC
:10292400981718162608AA002708AB002808AC0038
:102934002908AD0004300310AA0DAB0DAC0DAD0D8C
:10294400FF3E031D9D2C2D08F5002C08F4002B08D8
:10295400F3002A08F2000130F9003130F8002D307C
:10296400F7000030F6000A128A1591220A168A111D
:102974007208FF3E8316031399008C160800831215
:10298400031394152608AA002708AB002808AC00F6
:102994002908AD0002300310AA0DAB0DAC0DAD0D2E
:1029A400FF3E031DCD2C2D08F5002C08F4002B0848
:1029B400F3002A08F2000130F9003130F8002D301C
:1029C400F7000030F6000A128A1591220A168A11BD
:1029D4007208FF3E831603139300831203139416A5
:1029E40008000A168A11A3220A168A110A128A11E9
:1029F400FA270A168A110A168A114F220A168A1110
:102A0400003083120313A9000130A8008630A70008
:102A1400A030A6000A168A11C1240A168A110A16C1
:102A24008A1178220A168A11003083120313A9002E
:102A34000030A8002530A7008030A6000A168A11AD
:102A440090240A168A110B178B170800F5007218C8
:102A54002C2D302D831203130915332D83120313E8
:102A640009117508F03988008914A630F300F30BB6
:102A7400392D000083120313891075080F39F300F0
:102A840003300310F30DFF3E031D432D0310730D9C
:102A940088008914A630F300F30B4E2D0000831236
:102AA400031389101B30F4009E30F300F30B582DF0
:102AB400F40B582D000008007208F600782D013040
:102AC400F4020030031CF503F5027308F30A8400D2
:102AD40083130008FF007608F60A84007F0880004C
:102AE4000008031D762D772D782D852D7408750427
:102AF400031D7D2D7E2D612D852D76088400831385
:102B040080010130F6070130F4020030031CF503A4
:102B1400F502740A031D922D750A031D922D932D3F
:102B24007F2D0800720873040319992D9A2DC72D5F
:102B34000130F600A62D01300310F20DF30DFF3E17
:102B4400031D9E2D0130F607F31FA92DAA2D9D2DDF
:102B540073087502031DB02D72087402031CB32D93
:102B6400B42DBA2D7208F4027308031CF503F502A0
:102B740001300310F30CF20CFF3E031DBB2D01309A
:102B8400F602031DC62DC72DAA2D7508F30074087F
:102B9400F200080083120313A501A60120082104F2
:102BA4000319D52DD62D0B2E0130A400E22D0130B2
:102BB4000310A00DA10DFF3E031DDA2D0130A40763
:102BC400A11FE52DE62DD92D01300310A50DA60D6D
:102BD400FF3E031DE72D21082302031DF32D2008CA
:102BE4002202031CF62DF72DFE2D2008A202210837
:102BF400031CA303A302251401300310A10CA00C91
:102C0400FF3E031DFF2D0130A402031D0A2E0B2ECF
:102C1400E62D2608A1002508A00008000A168A113E
:102C240056220A168A112A30F6008930F7008030BD
:102C3400F8000A128A159C210A168A111E30F60021
:102C44008930F700C030F8000A128A159C210A1650
:102C54008A1183120313A3010530A4002308F3008F
:102C640024080A168A112A230A168A1101308312AB
:102C74000313A40779302402031C412E422E302E64
:102C8400CE01273083120313A2000D30A10025309A
:102C9400A000A00B4B2EA10B4B2EA20B4B2E522EA1
:102CA4000A168A1156220A168A1108000130F40203
:102CB4000030031CF503F502740A031D652E750A22
:102CC400031D652E662E732EF201F301A22E013030
:102CD400F2070130F3070130F4020030031CF5035E
:102CE400F502720884008313000803197A2E7B2EE0
:102CF400942E7308840000080319812E822E942ECA
:102D0400740875040319872E882E942E7308840082
:102D14000008F60072088400000876060319932E52
:102D2400942E692E730884000008F600720884004B
:102D34000008F70076087702F200F301031CF3039E
:102D440008003530F6008830F7008030F8000A12A9
:102D54008A159C210A168A115E3083120313A90076
:102D64000A128A15F7220A168A11831203132B08F2
:102D7400F6000030F700CA30F8000A128A159C21C8
:102D84000A168A11CE3083120313A7000A30A0005A
:102D94000030A1002D08A3002C08A2000A168A11F5
:102DA400CC250A168A11831203132008303E0A1612
:102DB4008A11E1220A168A11CF3083120313A70065
:102DC4000A30F2000030F3002D08F5002C08F4005E
:102DD4000A168A1194250A168A117208303E0A16B8
:102DE4008A11E1220A168A110800F3007308031DF0
:102DF400FC2EFD2E022F8312031306083F394B2F9E
:102E0400831203130608C6003F30C6053F3046064A
:102E140003190D2F0E2F182F7B080319122F132FB0
:102E2400182FFB01FA014608C7004A2F7B08031D2F
:102E34001C2F1D2F2C2F47084606031D222F232F3E
:102E44002C2F1E307A020318282F292F2C2F013003
:102E5400FA074A2F1E307A06031D312F322F372FDF
:102E64000130FA07470880384B2F3F300605F2003F
:102E74003F307206031D3F2F402F4A2F7B08031D4E
:102E8400442F452F4A2F0130FB00FA0147084B2FEE
:102E94003F300800F701F51F502F512F582FF40928
:102EA400F509F40A0319F50A0130F700F31F5B2F43
:102EB4005C2F612FF209F309F20A0319F30A72086D
:102EC40073040319662F672F942F0130F600732FB4
:102ED40001300310F20DF30DFF3E031D6B2F013083
:102EE400F607F31F762F772F6A2F73087502031DD9
:102EF4007D2F72087402031C802F812F872F720884
:102F0400F4027308031CF503F50201300310F30CFB
:102F1400F20CFF3E031D882F0130F602031D932F90
:102F2400942F772F77080319982F992F9E2FF40940
:102F3400F509F40A0319F50A7508F3007408F20098
:102F440008005E3083120313A9000A128A15F722BF
:102F54000A168A11831203134E08303E8316031394
:102F6400BE00BF30F2004F30F3000630F4000030F2
:102F7400F5000A168A115E250A168A11C530F20078
:102F8400831203132B08F3000230F4000030F50021
:102F94000A168A115E250A168A110A30831203134F
:102FA400A0000030A1002D08A3002C08A2000A16DE
:102FB4008A11CC250A168A11831203132008303E85
:102FC40083160313C7000A30F2000030F3008312A3
:102FD40003132D08F5002C08F4000A168A11942511
:102FE4000A168A117208303E83160313C800C901F9
:0C2FF4000A168A1185230A168A110800AB
:02400E00FB3F76
:00000001FF
